{
  "_format": "hh-sol-artifact-1",
  "contractName": "MyEpicGame",
  "sourceName": "contracts/MyEpicGame.sol",
  "abi": [
    {
      "inputs": [
        {
          "internalType": "string[]",
          "name": "characterNames",
          "type": "string[]"
        },
        {
          "internalType": "string[]",
          "name": "characterImageURIs",
          "type": "string[]"
        },
        {
          "internalType": "uint256[]",
          "name": "characterHp",
          "type": "uint256[]"
        },
        {
          "internalType": "uint256[]",
          "name": "characterAttackDmg",
          "type": "uint256[]"
        },
        {
          "internalType": "uint256[]",
          "name": "characterCritChance",
          "type": "uint256[]"
        },
        {
          "internalType": "string",
          "name": "bossName",
          "type": "string"
        },
        {
          "internalType": "string",
          "name": "bossImageURI",
          "type": "string"
        },
        {
          "internalType": "uint256",
          "name": "bossHp",
          "type": "uint256"
        },
        {
          "internalType": "uint256",
          "name": "bossAttackDamage",
          "type": "uint256"
        },
        {
          "internalType": "uint256",
          "name": "bossAttackChance",
          "type": "uint256"
        }
      ],
      "stateMutability": "nonpayable",
      "type": "constructor"
    },
    {
      "anonymous": false,
      "inputs": [
        {
          "indexed": true,
          "internalType": "address",
          "name": "owner",
          "type": "address"
        },
        {
          "indexed": true,
          "internalType": "address",
          "name": "approved",
          "type": "address"
        },
        {
          "indexed": true,
          "internalType": "uint256",
          "name": "tokenId",
          "type": "uint256"
        }
      ],
      "name": "Approval",
      "type": "event"
    },
    {
      "anonymous": false,
      "inputs": [
        {
          "indexed": true,
          "internalType": "address",
          "name": "owner",
          "type": "address"
        },
        {
          "indexed": true,
          "internalType": "address",
          "name": "operator",
          "type": "address"
        },
        {
          "indexed": false,
          "internalType": "bool",
          "name": "approved",
          "type": "bool"
        }
      ],
      "name": "ApprovalForAll",
      "type": "event"
    },
    {
      "anonymous": false,
      "inputs": [
        {
          "indexed": false,
          "internalType": "address",
          "name": "sender",
          "type": "address"
        },
        {
          "indexed": false,
          "internalType": "uint256",
          "name": "newBossHp",
          "type": "uint256"
        },
        {
          "indexed": false,
          "internalType": "uint256",
          "name": "newCharacterHp",
          "type": "uint256"
        },
        {
          "indexed": false,
          "internalType": "bool",
          "name": "isCharacterCrited",
          "type": "bool"
        },
        {
          "indexed": false,
          "internalType": "bool",
          "name": "isBossMissed",
          "type": "bool"
        }
      ],
      "name": "AttackComplete",
      "type": "event"
    },
    {
      "anonymous": false,
      "inputs": [
        {
          "indexed": false,
          "internalType": "address",
          "name": "sender",
          "type": "address"
        },
        {
          "indexed": false,
          "internalType": "uint256",
          "name": "tokenId",
          "type": "uint256"
        },
        {
          "indexed": false,
          "internalType": "uint256",
          "name": "characterIndex",
          "type": "uint256"
        }
      ],
      "name": "CharacterNFTMinted",
      "type": "event"
    },
    {
      "anonymous": false,
      "inputs": [
        {
          "indexed": true,
          "internalType": "address",
          "name": "from",
          "type": "address"
        },
        {
          "indexed": true,
          "internalType": "address",
          "name": "to",
          "type": "address"
        },
        {
          "indexed": true,
          "internalType": "uint256",
          "name": "tokenId",
          "type": "uint256"
        }
      ],
      "name": "Transfer",
      "type": "event"
    },
    {
      "inputs": [
        {
          "internalType": "address",
          "name": "",
          "type": "address"
        }
      ],
      "name": "addressToTokenId",
      "outputs": [
        {
          "internalType": "uint256",
          "name": "",
          "type": "uint256"
        }
      ],
      "stateMutability": "view",
      "type": "function"
    },
    {
      "inputs": [
        {
          "internalType": "address",
          "name": "to",
          "type": "address"
        },
        {
          "internalType": "uint256",
          "name": "tokenId",
          "type": "uint256"
        }
      ],
      "name": "approve",
      "outputs": [],
      "stateMutability": "nonpayable",
      "type": "function"
    },
    {
      "inputs": [],
      "name": "attackBoss",
      "outputs": [],
      "stateMutability": "nonpayable",
      "type": "function"
    },
    {
      "inputs": [
        {
          "internalType": "address",
          "name": "owner",
          "type": "address"
        }
      ],
      "name": "balanceOf",
      "outputs": [
        {
          "internalType": "uint256",
          "name": "",
          "type": "uint256"
        }
      ],
      "stateMutability": "view",
      "type": "function"
    },
    {
      "inputs": [],
      "name": "bigBoss",
      "outputs": [
        {
          "internalType": "string",
          "name": "name",
          "type": "string"
        },
        {
          "internalType": "string",
          "name": "imageURI",
          "type": "string"
        },
        {
          "internalType": "uint256",
          "name": "hp",
          "type": "uint256"
        },
        {
          "internalType": "uint256",
          "name": "maxHp",
          "type": "uint256"
        },
        {
          "internalType": "uint256",
          "name": "attackDamage",
          "type": "uint256"
        },
        {
          "internalType": "uint256",
          "name": "attackChance",
          "type": "uint256"
        }
      ],
      "stateMutability": "view",
      "type": "function"
    },
    {
      "inputs": [],
      "name": "checkIfUserHasNFT",
      "outputs": [
        {
          "components": [
            {
              "internalType": "uint256",
              "name": "characterIndex",
              "type": "uint256"
            },
            {
              "internalType": "string",
              "name": "name",
              "type": "string"
            },
            {
              "internalType": "string",
              "name": "imageURI",
              "type": "string"
            },
            {
              "internalType": "uint256",
              "name": "hp",
              "type": "uint256"
            },
            {
              "internalType": "uint256",
              "name": "maxHp",
              "type": "uint256"
            },
            {
              "internalType": "uint256",
              "name": "attackDamage",
              "type": "uint256"
            },
            {
              "internalType": "uint256",
              "name": "critChance",
              "type": "uint256"
            }
          ],
          "internalType": "struct MyEpicGame.CharacterAttributes",
          "name": "",
          "type": "tuple"
        }
      ],
      "stateMutability": "view",
      "type": "function"
    },
    {
      "inputs": [],
      "name": "getAllDefaultCharacters",
      "outputs": [
        {
          "components": [
            {
              "internalType": "uint256",
              "name": "characterIndex",
              "type": "uint256"
            },
            {
              "internalType": "string",
              "name": "name",
              "type": "string"
            },
            {
              "internalType": "string",
              "name": "imageURI",
              "type": "string"
            },
            {
              "internalType": "uint256",
              "name": "hp",
              "type": "uint256"
            },
            {
              "internalType": "uint256",
              "name": "maxHp",
              "type": "uint256"
            },
            {
              "internalType": "uint256",
              "name": "attackDamage",
              "type": "uint256"
            },
            {
              "internalType": "uint256",
              "name": "critChance",
              "type": "uint256"
            }
          ],
          "internalType": "struct MyEpicGame.CharacterAttributes[]",
          "name": "",
          "type": "tuple[]"
        }
      ],
      "stateMutability": "view",
      "type": "function"
    },
    {
      "inputs": [],
      "name": "getAllPlayers",
      "outputs": [
        {
          "components": [
            {
              "internalType": "address",
              "name": "playerAddress",
              "type": "address"
            },
            {
              "components": [
                {
                  "internalType": "uint256",
                  "name": "characterIndex",
                  "type": "uint256"
                },
                {
                  "internalType": "string",
                  "name": "name",
                  "type": "string"
                },
                {
                  "internalType": "string",
                  "name": "imageURI",
                  "type": "string"
                },
                {
                  "internalType": "uint256",
                  "name": "hp",
                  "type": "uint256"
                },
                {
                  "internalType": "uint256",
                  "name": "maxHp",
                  "type": "uint256"
                },
                {
                  "internalType": "uint256",
                  "name": "attackDamage",
                  "type": "uint256"
                },
                {
                  "internalType": "uint256",
                  "name": "critChance",
                  "type": "uint256"
                }
              ],
              "internalType": "struct MyEpicGame.CharacterAttributes",
              "name": "characterAttributes",
              "type": "tuple"
            },
            {
              "internalType": "uint256",
              "name": "dealedDamage",
              "type": "uint256"
            }
          ],
          "internalType": "struct MyEpicGame.PlayerInfo[]",
          "name": "",
          "type": "tuple[]"
        }
      ],
      "stateMutability": "view",
      "type": "function"
    },
    {
      "inputs": [
        {
          "internalType": "uint256",
          "name": "tokenId",
          "type": "uint256"
        }
      ],
      "name": "getApproved",
      "outputs": [
        {
          "internalType": "address",
          "name": "",
          "type": "address"
        }
      ],
      "stateMutability": "view",
      "type": "function"
    },
    {
      "inputs": [
        {
          "internalType": "address",
          "name": "owner",
          "type": "address"
        },
        {
          "internalType": "address",
          "name": "operator",
          "type": "address"
        }
      ],
      "name": "isApprovedForAll",
      "outputs": [
        {
          "internalType": "bool",
          "name": "",
          "type": "bool"
        }
      ],
      "stateMutability": "view",
      "type": "function"
    },
    {
      "inputs": [
        {
          "internalType": "uint256",
          "name": "_characterIndex",
          "type": "uint256"
        }
      ],
      "name": "mintCharacterNFT",
      "outputs": [],
      "stateMutability": "nonpayable",
      "type": "function"
    },
    {
      "inputs": [],
      "name": "name",
      "outputs": [
        {
          "internalType": "string",
          "name": "",
          "type": "string"
        }
      ],
      "stateMutability": "view",
      "type": "function"
    },
    {
      "inputs": [
        {
          "internalType": "uint256",
          "name": "tokenId",
          "type": "uint256"
        }
      ],
      "name": "ownerOf",
      "outputs": [
        {
          "internalType": "address",
          "name": "",
          "type": "address"
        }
      ],
      "stateMutability": "view",
      "type": "function"
    },
    {
      "inputs": [
        {
          "internalType": "uint256",
          "name": "",
          "type": "uint256"
        }
      ],
      "name": "players",
      "outputs": [
        {
          "internalType": "address",
          "name": "",
          "type": "address"
        }
      ],
      "stateMutability": "view",
      "type": "function"
    },
    {
      "inputs": [
        {
          "internalType": "address",
          "name": "from",
          "type": "address"
        },
        {
          "internalType": "address",
          "name": "to",
          "type": "address"
        },
        {
          "internalType": "uint256",
          "name": "tokenId",
          "type": "uint256"
        }
      ],
      "name": "safeTransferFrom",
      "outputs": [],
      "stateMutability": "nonpayable",
      "type": "function"
    },
    {
      "inputs": [
        {
          "internalType": "address",
          "name": "from",
          "type": "address"
        },
        {
          "internalType": "address",
          "name": "to",
          "type": "address"
        },
        {
          "internalType": "uint256",
          "name": "tokenId",
          "type": "uint256"
        },
        {
          "internalType": "bytes",
          "name": "_data",
          "type": "bytes"
        }
      ],
      "name": "safeTransferFrom",
      "outputs": [],
      "stateMutability": "nonpayable",
      "type": "function"
    },
    {
      "inputs": [
        {
          "internalType": "address",
          "name": "operator",
          "type": "address"
        },
        {
          "internalType": "bool",
          "name": "approved",
          "type": "bool"
        }
      ],
      "name": "setApprovalForAll",
      "outputs": [],
      "stateMutability": "nonpayable",
      "type": "function"
    },
    {
      "inputs": [
        {
          "internalType": "bytes4",
          "name": "interfaceId",
          "type": "bytes4"
        }
      ],
      "name": "supportsInterface",
      "outputs": [
        {
          "internalType": "bool",
          "name": "",
          "type": "bool"
        }
      ],
      "stateMutability": "view",
      "type": "function"
    },
    {
      "inputs": [],
      "name": "symbol",
      "outputs": [
        {
          "internalType": "string",
          "name": "",
          "type": "string"
        }
      ],
      "stateMutability": "view",
      "type": "function"
    },
    {
      "inputs": [
        {
          "internalType": "uint256",
          "name": "",
          "type": "uint256"
        }
      ],
      "name": "tokenIdToCharacterAttributes",
      "outputs": [
        {
          "internalType": "uint256",
          "name": "characterIndex",
          "type": "uint256"
        },
        {
          "internalType": "string",
          "name": "name",
          "type": "string"
        },
        {
          "internalType": "string",
          "name": "imageURI",
          "type": "string"
        },
        {
          "internalType": "uint256",
          "name": "hp",
          "type": "uint256"
        },
        {
          "internalType": "uint256",
          "name": "maxHp",
          "type": "uint256"
        },
        {
          "internalType": "uint256",
          "name": "attackDamage",
          "type": "uint256"
        },
        {
          "internalType": "uint256",
          "name": "critChance",
          "type": "uint256"
        }
      ],
      "stateMutability": "view",
      "type": "function"
    },
    {
      "inputs": [
        {
          "internalType": "uint256",
          "name": "",
          "type": "uint256"
        }
      ],
      "name": "tokenIdToDealedDamage",
      "outputs": [
        {
          "internalType": "uint256",
          "name": "",
          "type": "uint256"
        }
      ],
      "stateMutability": "view",
      "type": "function"
    },
    {
      "inputs": [
        {
          "internalType": "uint256",
          "name": "_tokenId",
          "type": "uint256"
        }
      ],
      "name": "tokenURI",
      "outputs": [
        {
          "internalType": "string",
          "name": "",
          "type": "string"
        }
      ],
      "stateMutability": "view",
      "type": "function"
    },
    {
      "inputs": [
        {
          "internalType": "address",
          "name": "from",
          "type": "address"
        },
        {
          "internalType": "address",
          "name": "to",
          "type": "address"
        },
        {
          "internalType": "uint256",
          "name": "tokenId",
          "type": "uint256"
        }
      ],
      "name": "transferFrom",
      "outputs": [],
      "stateMutability": "nonpayable",
      "type": "function"
    }
  ],
  "bytecode": "0x60806040523480156200001157600080fd5b5060405162005ef738038062005ef7833981810160405281019062000037919062000ae9565b6040518060400160405280600681526020017f4865726f657300000000000000000000000000000000000000000000000000008152506040518060400160405280600481526020017f4845524f000000000000000000000000000000000000000000000000000000008152508160009080519060200190620000bb9291906200087c565b508060019080519060200190620000d49291906200087c565b5050506040518060c0016040528086815260200185815260200184815260200184815260200183815260200182815250600d6000820151816000019080519060200190620001249291906200087c565b506020820151816001019080519060200190620001439291906200087c565b5060408201518160020155606082015181600301556080820151816004015560a08201518160050155905050620002d06040518060600160405280602a815260200162005ecd602a9139600d60000180546200019f9062000eba565b80601f0160208091040260200160405190810160405280929190818152602001828054620001cd9062000eba565b80156200021e5780601f10620001f2576101008083540402835291602001916200021e565b820191906000526020600020905b8154815290600101906020018083116200020057829003601f168201915b5050505050600d60020154600d60010180546200023b9062000eba565b80601f0160208091040260200160405190810160405280929190818152602001828054620002699062000eba565b8015620002ba5780601f106200028e57610100808354040283529160200191620002ba565b820191906000526020600020905b8154815290600101906020018083116200029c57829003601f168201915b50505050506200079160201b620020af1760201c565b60005b8a51811015620007475760086040518060e001604052808381526020018d84815181106200032a577f4e487b7100000000000000000000000000000000000000000000000000000000600052603260045260246000fd5b602002602001015181526020018c848151811062000371577f4e487b7100000000000000000000000000000000000000000000000000000000600052603260045260246000fd5b602002602001015181526020018b8481518110620003b8577f4e487b7100000000000000000000000000000000000000000000000000000000600052603260045260246000fd5b602002602001015181526020018b8481518110620003ff577f4e487b7100000000000000000000000000000000000000000000000000000000600052603260045260246000fd5b602002602001015181526020018a848151811062000446577f4e487b7100000000000000000000000000000000000000000000000000000000600052603260045260246000fd5b602002602001015181526020018984815181106200048d577f4e487b7100000000000000000000000000000000000000000000000000000000600052603260045260246000fd5b60200260200101518152509080600181540180825580915050600190039060005260206000209060070201600090919091909150600082015181600001556020820151816001019080519060200190620004e99291906200087c565b506040820151816002019080519060200190620005089291906200087c565b50606082015181600301556080820151816004015560a0820151816005015560c08201518160060155505060006008828154811062000570577f4e487b7100000000000000000000000000000000000000000000000000000000600052603260045260246000fd5b90600052602060002090600702016040518060e001604052908160008201548152602001600182018054620005a59062000eba565b80601f0160208091040260200160405190810160405280929190818152602001828054620005d39062000eba565b8015620006245780601f10620005f85761010080835404028352916020019162000624565b820191906000526020600020905b8154815290600101906020018083116200060657829003601f168201915b505050505081526020016002820180546200063f9062000eba565b80601f01602080910402602001604051908101604052809291908181526020018280546200066d9062000eba565b8015620006be5780601f106200069257610100808354040283529160200191620006be565b820191906000526020600020905b815481529060010190602001808311620006a057829003601f168201915b5050505050815260200160038201548152602001600482015481526020016005820154815260200160068201548152505090506200072f60405180606001604052806025815260200162005ea8602591398260200151836060015184604001516200079160201b620020af1760201c565b506001816200073f919062000e1d565b9050620002d3565b506200075f60066200083d60201b620021511760201c565b606444426200076f919062000e1d565b6200077b919062000ef0565b600781905550505050505050505050506200100f565b6200083784848484604051602401620007ae949392919062000cda565b6040516020818303038152906040527f8d142cdd000000000000000000000000000000000000000000000000000000007bffffffffffffffffffffffffffffffffffffffffffffffffffffffff19166020820180517bffffffffffffffffffffffffffffffffffffffffffffffffffffffff83818316178352505050506200085360201b60201c565b50505050565b6001816000016000828254019250508190555050565b60008151905060006a636f6e736f6c652e6c6f679050602083016000808483855afa5050505050565b8280546200088a9062000eba565b90600052602060002090601f016020900481019282620008ae5760008555620008fa565b82601f10620008c957805160ff1916838001178555620008fa565b82800160010185558215620008fa579182015b82811115620008f9578251825591602001919060010190620008dc565b5b5090506200090991906200090d565b5090565b5b80821115620009285760008160009055506001016200090e565b5090565b6000620009436200093d8462000d70565b62000d3c565b9050808382526020820190508260005b858110156200098757815185016200096c888262000aa5565b84526020840193506020830192505060018101905062000953565b5050509392505050565b6000620009a8620009a28462000d9f565b62000d3c565b90508083825260208201905082856020860282011115620009c857600080fd5b60005b85811015620009fc5781620009e1888262000ad2565b845260208401935060208301925050600181019050620009cb565b5050509392505050565b600062000a1d62000a178462000dce565b62000d3c565b90508281526020810184848401111562000a3657600080fd5b62000a4384828562000e84565b509392505050565b600082601f83011262000a5d57600080fd5b815162000a6f8482602086016200092c565b91505092915050565b600082601f83011262000a8a57600080fd5b815162000a9c84826020860162000991565b91505092915050565b600082601f83011262000ab757600080fd5b815162000ac984826020860162000a06565b91505092915050565b60008151905062000ae38162000ff5565b92915050565b6000806000806000806000806000806101408b8d03121562000b0a57600080fd5b60008b015167ffffffffffffffff81111562000b2557600080fd5b62000b338d828e0162000a4b565b9a505060208b015167ffffffffffffffff81111562000b5157600080fd5b62000b5f8d828e0162000a4b565b99505060408b015167ffffffffffffffff81111562000b7d57600080fd5b62000b8b8d828e0162000a78565b98505060608b015167ffffffffffffffff81111562000ba957600080fd5b62000bb78d828e0162000a78565b97505060808b015167ffffffffffffffff81111562000bd557600080fd5b62000be38d828e0162000a78565b96505060a08b015167ffffffffffffffff81111562000c0157600080fd5b62000c0f8d828e0162000aa5565b95505060c08b015167ffffffffffffffff81111562000c2d57600080fd5b62000c3b8d828e0162000aa5565b94505060e062000c4e8d828e0162000ad2565b93505061010062000c628d828e0162000ad2565b92505061012062000c768d828e0162000ad2565b9150509295989b9194979a5092959850565b600062000c958262000e01565b62000ca1818562000e0c565b935062000cb381856020860162000e84565b62000cbe8162000fe4565b840191505092915050565b62000cd48162000e7a565b82525050565b6000608082019050818103600083015262000cf6818762000c88565b9050818103602083015262000d0c818662000c88565b905062000d1d604083018562000cc9565b818103606083015262000d31818462000c88565b905095945050505050565b6000604051905081810181811067ffffffffffffffff8211171562000d665762000d6562000fb5565b5b8060405250919050565b600067ffffffffffffffff82111562000d8e5762000d8d62000fb5565b5b602082029050602081019050919050565b600067ffffffffffffffff82111562000dbd5762000dbc62000fb5565b5b602082029050602081019050919050565b600067ffffffffffffffff82111562000dec5762000deb62000fb5565b5b601f19601f8301169050602081019050919050565b600081519050919050565b600082825260208201905092915050565b600062000e2a8262000e7a565b915062000e378362000e7a565b9250827fffffffffffffffffffffffffffffffffffffffffffffffffffffffffffffffff0382111562000e6f5762000e6e62000f28565b5b828201905092915050565b6000819050919050565b60005b8381101562000ea457808201518184015260208101905062000e87565b8381111562000eb4576000848401525b50505050565b6000600282049050600182168062000ed357607f821691505b6020821081141562000eea5762000ee962000f86565b5b50919050565b600062000efd8262000e7a565b915062000f0a8362000e7a565b92508262000f1d5762000f1c62000f57565b5b828206905092915050565b7f4e487b7100000000000000000000000000000000000000000000000000000000600052601160045260246000fd5b7f4e487b7100000000000000000000000000000000000000000000000000000000600052601260045260246000fd5b7f4e487b7100000000000000000000000000000000000000000000000000000000600052602260045260246000fd5b7f4e487b7100000000000000000000000000000000000000000000000000000000600052604160045260246000fd5b6000601f19601f8301169050919050565b620010008162000e7a565b81146200100c57600080fd5b50565b614e89806200101f6000396000f3fe608060405234801561001057600080fd5b506004361061014d5760003560e01c806395d89b41116100c3578063c8cf27f41161007c578063c8cf27f4146103e1578063d4f24c5b146103ff578063e985e9c514610409578063efa1c48214610439578063f71d96cb14610457578063f8b81ef7146104875761014d565b806395d89b411461031a578063a22cb46514610338578063a9c3267914610354578063b88d4fde14610377578063b953084e14610393578063c87b56dd146103b15761014d565b80632334d54b116101155780632334d54b1461022257806323b872dd1461025257806342842e0e1461026e5780636352211e1461028a5780636511bf2e146102ba57806370a08231146102ea5761014d565b806301ffc9a7146101525780630549795e1461018257806306fdde03146101b8578063081812fc146101d6578063095ea7b314610206575b600080fd5b61016c6004803603810190610167919061350b565b6104a3565b6040516101799190614415565b60405180910390f35b61019c6004803603810190610197919061355d565b610585565b6040516101af97969594939291906147f9565b60405180910390f35b6101c06106d7565b6040516101cd9190614430565b60405180910390f35b6101f060048036038101906101eb919061355d565b610769565b6040516101fd91906142e0565b60405180910390f35b610220600480360381019061021b91906134cf565b6107ee565b005b61023c6004803603810190610237919061355d565b610906565b60405161024991906147de565b60405180910390f35b61026c600480360381019061026791906133c9565b61091e565b005b610288600480360381019061028391906133c9565b61097e565b005b6102a4600480360381019061029f919061355d565b61099e565b6040516102b191906142e0565b60405180910390f35b6102d460048036038101906102cf9190613364565b610a50565b6040516102e191906147de565b60405180910390f35b61030460048036038101906102ff9190613364565b610a68565b60405161031191906147de565b60405180910390f35b610322610b20565b60405161032f9190614430565b60405180910390f35b610352600480360381019061034d9190613493565b610bb2565b005b61035c610bc8565b60405161036e969594939291906144ff565b60405180910390f35b610391600480360381019061038c9190613418565b610d02565b005b61039b610d64565b6040516103a891906143d1565b60405180910390f35b6103cb60048036038101906103c6919061355d565b610f19565b6040516103d89190614430565b60405180910390f35b6103e9611152565b6040516103f691906147bc565b60405180910390f35b610407611334565b005b610423600480360381019061041e919061338d565b6117d0565b6040516104309190614415565b60405180910390f35b610441611864565b60405161044e91906143f3565b60405180910390f35b610471600480360381019061046c919061355d565b611bbe565b60405161047e91906142e0565b60405180910390f35b6104a1600480360381019061049c919061355d565b611bfd565b005b60007f80ac58cd000000000000000000000000000000000000000000000000000000007bffffffffffffffffffffffffffffffffffffffffffffffffffffffff1916827bffffffffffffffffffffffffffffffffffffffffffffffffffffffff1916148061056e57507f5b5e139f000000000000000000000000000000000000000000000000000000007bffffffffffffffffffffffffffffffffffffffffffffffffffffffff1916827bffffffffffffffffffffffffffffffffffffffffffffffffffffffff1916145b8061057e575061057d82612167565b5b9050919050565b600b6020528060005260406000206000915090508060000154908060010180546105ae90614b68565b80601f01602080910402602001604051908101604052809291908181526020018280546105da90614b68565b80156106275780601f106105fc57610100808354040283529160200191610627565b820191906000526020600020905b81548152906001019060200180831161060a57829003601f168201915b50505050509080600201805461063c90614b68565b80601f016020809104026020016040519081016040528092919081815260200182805461066890614b68565b80156106b55780601f1061068a576101008083540402835291602001916106b5565b820191906000526020600020905b81548152906001019060200180831161069857829003601f168201915b5050505050908060030154908060040154908060050154908060060154905087565b6060600080546106e690614b68565b80601f016020809104026020016040519081016040528092919081815260200182805461071290614b68565b801561075f5780601f106107345761010080835404028352916020019161075f565b820191906000526020600020905b81548152906001019060200180831161074257829003601f168201915b5050505050905090565b6000610774826121d1565b6107b3576040517f08c379a00000000000000000000000000000000000000000000000000000000081526004016107aa9061473c565b60405180910390fd5b6004600083815260200190815260200160002060009054906101000a900473ffffffffffffffffffffffffffffffffffffffff169050919050565b60006107f98261099e565b90508073ffffffffffffffffffffffffffffffffffffffff168373ffffffffffffffffffffffffffffffffffffffff16141561086a576040517f08c379a00000000000000000000000000000000000000000000000000000000081526004016108619061477c565b60405180910390fd5b8073ffffffffffffffffffffffffffffffffffffffff1661088961223d565b73ffffffffffffffffffffffffffffffffffffffff1614806108b857506108b7816108b261223d565b6117d0565b5b6108f7576040517f08c379a00000000000000000000000000000000000000000000000000000000081526004016108ee9061469c565b60405180910390fd5b6109018383612245565b505050565b600c6020528060005260406000206000915090505481565b61092f61092961223d565b826122fe565b61096e576040517f08c379a00000000000000000000000000000000000000000000000000000000081526004016109659061479c565b60405180910390fd5b6109798383836123dc565b505050565b61099983838360405180602001604052806000815250610d02565b505050565b6000806002600084815260200190815260200160002060009054906101000a900473ffffffffffffffffffffffffffffffffffffffff169050600073ffffffffffffffffffffffffffffffffffffffff168173ffffffffffffffffffffffffffffffffffffffff161415610a47576040517f08c379a0000000000000000000000000000000000000000000000000000000008152600401610a3e906146dc565b60405180910390fd5b80915050919050565b600a6020528060005260406000206000915090505481565b60008073ffffffffffffffffffffffffffffffffffffffff168273ffffffffffffffffffffffffffffffffffffffff161415610ad9576040517f08c379a0000000000000000000000000000000000000000000000000000000008152600401610ad0906146bc565b60405180910390fd5b600360008373ffffffffffffffffffffffffffffffffffffffff1673ffffffffffffffffffffffffffffffffffffffff168152602001908152602001600020549050919050565b606060018054610b2f90614b68565b80601f0160208091040260200160405190810160405280929190818152602001828054610b5b90614b68565b8015610ba85780601f10610b7d57610100808354040283529160200191610ba8565b820191906000526020600020905b815481529060010190602001808311610b8b57829003601f168201915b5050505050905090565b610bc4610bbd61223d565b8383612638565b5050565b600d806000018054610bd990614b68565b80601f0160208091040260200160405190810160405280929190818152602001828054610c0590614b68565b8015610c525780601f10610c2757610100808354040283529160200191610c52565b820191906000526020600020905b815481529060010190602001808311610c3557829003601f168201915b505050505090806001018054610c6790614b68565b80601f0160208091040260200160405190810160405280929190818152602001828054610c9390614b68565b8015610ce05780601f10610cb557610100808354040283529160200191610ce0565b820191906000526020600020905b815481529060010190602001808311610cc357829003601f168201915b5050505050908060020154908060030154908060040154908060050154905086565b610d13610d0d61223d565b836122fe565b610d52576040517f08c379a0000000000000000000000000000000000000000000000000000000008152600401610d499061479c565b60405180910390fd5b610d5e848484846127a5565b50505050565b60606008805480602002602001604051908101604052809291908181526020016000905b82821015610f1057838290600052602060002090600702016040518060e001604052908160008201548152602001600182018054610dc590614b68565b80601f0160208091040260200160405190810160405280929190818152602001828054610df190614b68565b8015610e3e5780601f10610e1357610100808354040283529160200191610e3e565b820191906000526020600020905b815481529060010190602001808311610e2157829003601f168201915b50505050508152602001600282018054610e5790614b68565b80601f0160208091040260200160405190810160405280929190818152602001828054610e8390614b68565b8015610ed05780601f10610ea557610100808354040283529160200191610ed0565b820191906000526020600020905b815481529060010190602001808311610eb357829003601f168201915b5050505050815260200160038201548152602001600482015481526020016005820154815260200160068201548152505081526020019060010190610d88565b50505050905090565b60606000600b60008481526020019081526020016000206040518060e001604052908160008201548152602001600182018054610f5590614b68565b80601f0160208091040260200160405190810160405280929190818152602001828054610f8190614b68565b8015610fce5780601f10610fa357610100808354040283529160200191610fce565b820191906000526020600020905b815481529060010190602001808311610fb157829003601f168201915b50505050508152602001600282018054610fe790614b68565b80601f016020809104026020016040519081016040528092919081815260200182805461101390614b68565b80156110605780601f1061103557610100808354040283529160200191611060565b820191906000526020600020905b81548152906001019060200180831161104357829003601f168201915b50505050508152602001600382015481526020016004820154815260200160058201548152602001600682015481525050905060006110a28260600151612801565b905060006110b38360800151612801565b905060006110c48460a00151612801565b905060006110d58560c00151612801565b9050600061111d86602001516110ea8a612801565b8860400151888888886040516020016111099796959493929190614201565b6040516020818303038152906040526129ae565b905060008160405160200161113291906142be565b604051602081830303815290604052905080975050505050505050919050565b61115a613176565b6000600a60003373ffffffffffffffffffffffffffffffffffffffff1673ffffffffffffffffffffffffffffffffffffffff168152602001908152602001600020549050600081111561132357600b60008281526020019081526020016000206040518060e0016040529081600082015481526020016001820180546111df90614b68565b80601f016020809104026020016040519081016040528092919081815260200182805461120b90614b68565b80156112585780601f1061122d57610100808354040283529160200191611258565b820191906000526020600020905b81548152906001019060200180831161123b57829003601f168201915b5050505050815260200160028201805461127190614b68565b80601f016020809104026020016040519081016040528092919081815260200182805461129d90614b68565b80156112ea5780601f106112bf576101008083540402835291602001916112ea565b820191906000526020600020905b8154815290600101906020018083116112cd57829003601f168201915b50505050508152602001600382015481526020016004820154815260200160058201548152602001600682015481525050915050611331565b61132b613176565b80925050505b90565b6000600a60003373ffffffffffffffffffffffffffffffffffffffff1673ffffffffffffffffffffffffffffffffffffffff1681526020019081526020016000205490506000600b600083815260200190815260200160002090506114476040518060600160405280603c8152602001614e18603c91398260010180546113ba90614b68565b80601f01602080910402602001604051908101604052809291908181526020018280546113e690614b68565b80156114335780601f1061140857610100808354040283529160200191611433565b820191906000526020600020905b81548152906001019060200180831161141657829003601f168201915b505050505083600301548460050154612b6c565b61151f6040518060400160405280601b81526020017f426f73732025732068617320257320485020616e642025732041440000000000815250600d600001805461149090614b68565b80601f01602080910402602001604051908101604052809291908181526020018280546114bc90614b68565b80156115095780601f106114de57610100808354040283529160200191611509565b820191906000526020600020905b8154815290600101906020018083116114ec57829003601f168201915b5050505050600d60020154600d60040154612b6c565b6000816003015411611566576040517f08c379a000000000000000000000000000000000000000000000000000000000815260040161155d906146fc565b60405180910390fd5b6000600d60020154116115ae576040517f08c379a00000000000000000000000000000000000000000000000000000000081526004016115a5906145dc565b60405180910390fd5b606460075442446115bf919061499d565b6115c9919061499d565b6115d39190614be3565b600781905550600080826006015460075411156115fa578260050154915060009050611612565b6002836005015461160b9190614a24565b9150600190505b81600d60020154101561165e576000600d60020181905550600d60020154600c60008681526020019081526020016000206000828254611652919061499d565b925050819055506116a5565b81600d60020160008282546116739190614a7e565b9250508190555081600c6000868152602001908152602001600020600082825461169d919061499d565b925050819055505b606460075442446116b6919061499d565b6116c0919061499d565b6116ca9190614be3565b600781905550600080600d6005015460075411156116ef5760009150600190506116fc565b600d600401549150600090505b81856003015410156117175760008560030181905550611733565b8185600301600082825461172b9190614a7e565b925050819055505b61175a604051806060016040528060358152602001614de360359139600d60020154612c0e565b611780604051806060016040528060378152602001614d3e603791398660030154612c0e565b7f31baefb7a70e76ee1867ee39ee8dac9419075116cccca16012185ab390f8162033600d60020154876003015486856040516117c095949392919061437e565b60405180910390a1505050505050565b6000600560008473ffffffffffffffffffffffffffffffffffffffff1673ffffffffffffffffffffffffffffffffffffffff16815260200190815260200160002060008373ffffffffffffffffffffffffffffffffffffffff1673ffffffffffffffffffffffffffffffffffffffff16815260200190815260200160002060009054906101000a900460ff16905092915050565b6060600060098054905067ffffffffffffffff8111156118ad577f4e487b7100000000000000000000000000000000000000000000000000000000600052604160045260246000fd5b6040519080825280602002602001820160405280156118e657816020015b6118d36131b3565b8152602001906001900390816118cb5790505b50905060005b600980549050811015611bb657600060098281548110611935577f4e487b7100000000000000000000000000000000000000000000000000000000600052603260045260246000fd5b9060005260206000200160009054906101000a900473ffffffffffffffffffffffffffffffffffffffff1690506000600a60008373ffffffffffffffffffffffffffffffffffffffff1673ffffffffffffffffffffffffffffffffffffffff16815260200190815260200160002054905060405180606001604052808373ffffffffffffffffffffffffffffffffffffffff168152602001600b60008481526020019081526020016000206040518060e001604052908160008201548152602001600182018054611a0590614b68565b80601f0160208091040260200160405190810160405280929190818152602001828054611a3190614b68565b8015611a7e5780601f10611a5357610100808354040283529160200191611a7e565b820191906000526020600020905b815481529060010190602001808311611a6157829003601f168201915b50505050508152602001600282018054611a9790614b68565b80601f0160208091040260200160405190810160405280929190818152602001828054611ac390614b68565b8015611b105780601f10611ae557610100808354040283529160200191611b10565b820191906000526020600020905b815481529060010190602001808311611af357829003601f168201915b505050505081526020016003820154815260200160048201548152602001600582015481526020016006820154815250508152602001600c600084815260200190815260200160002054815250848481518110611b96577f4e487b7100000000000000000000000000000000000000000000000000000000600052603260045260246000fd5b602002602001018190525050508080611bae90614b9a565b9150506118ec565b508091505090565b60098181548110611bce57600080fd5b906000526020600020016000915054906101000a900473ffffffffffffffffffffffffffffffffffffffff1681565b6000611c096006612caa565b9050611c153382612cb8565b6040518060e0016040528083815260200160088481548110611c60577f4e487b7100000000000000000000000000000000000000000000000000000000600052603260045260246000fd5b90600052602060002090600702016001018054611c7c90614b68565b80601f0160208091040260200160405190810160405280929190818152602001828054611ca890614b68565b8015611cf55780601f10611cca57610100808354040283529160200191611cf5565b820191906000526020600020905b815481529060010190602001808311611cd857829003601f168201915b5050505050815260200160088481548110611d39577f4e487b7100000000000000000000000000000000000000000000000000000000600052603260045260246000fd5b90600052602060002090600702016002018054611d5590614b68565b80601f0160208091040260200160405190810160405280929190818152602001828054611d8190614b68565b8015611dce5780601f10611da357610100808354040283529160200191611dce565b820191906000526020600020905b815481529060010190602001808311611db157829003601f168201915b5050505050815260200160088481548110611e12577f4e487b7100000000000000000000000000000000000000000000000000000000600052603260045260246000fd5b906000526020600020906007020160030154815260200160088481548110611e63577f4e487b7100000000000000000000000000000000000000000000000000000000600052603260045260246000fd5b906000526020600020906007020160040154815260200160088481548110611eb4577f4e487b7100000000000000000000000000000000000000000000000000000000600052603260045260246000fd5b906000526020600020906007020160050154815260200160088481548110611f05577f4e487b7100000000000000000000000000000000000000000000000000000000600052603260045260246000fd5b906000526020600020906007020160060154815250600b6000838152602001908152602001600020600082015181600001556020820151816001019080519060200190611f539291906131f0565b506040820151816002019080519060200190611f709291906131f0565b50606082015181600301556080820151816004015560a0820151816005015560c08201518160060155905050611fbf6040518060600160405280602e8152602001614db5602e91398284612cd6565b6009339080600181540180825580915050600190039060005260206000200160009091909190916101000a81548173ffffffffffffffffffffffffffffffffffffffff021916908373ffffffffffffffffffffffffffffffffffffffff16021790555080600a60003373ffffffffffffffffffffffffffffffffffffffff1673ffffffffffffffffffffffffffffffffffffffff168152602001908152602001600020819055506120706006612151565b7f4bc303fd457a97b4691b9af582ce71868a3d258638c8d4f8c60988a0f0bfb8cd3382846040516120a393929190614347565b60405180910390a15050565b61214b848484846040516024016120c99493929190614452565b6040516020818303038152906040527f8d142cdd000000000000000000000000000000000000000000000000000000007bffffffffffffffffffffffffffffffffffffffffffffffffffffffff19166020820180517bffffffffffffffffffffffffffffffffffffffffffffffffffffffff8381831617835250505050612d75565b50505050565b6001816000016000828254019250508190555050565b60007f01ffc9a7000000000000000000000000000000000000000000000000000000007bffffffffffffffffffffffffffffffffffffffffffffffffffffffff1916827bffffffffffffffffffffffffffffffffffffffffffffffffffffffff1916149050919050565b60008073ffffffffffffffffffffffffffffffffffffffff166002600084815260200190815260200160002060009054906101000a900473ffffffffffffffffffffffffffffffffffffffff1673ffffffffffffffffffffffffffffffffffffffff1614159050919050565b600033905090565b816004600083815260200190815260200160002060006101000a81548173ffffffffffffffffffffffffffffffffffffffff021916908373ffffffffffffffffffffffffffffffffffffffff160217905550808273ffffffffffffffffffffffffffffffffffffffff166122b88361099e565b73ffffffffffffffffffffffffffffffffffffffff167f8c5be1e5ebec7d5bd14f71427d1e84f3dd0314c0f7b2291e5b200ac8c7c3b92560405160405180910390a45050565b6000612309826121d1565b612348576040517f08c379a000000000000000000000000000000000000000000000000000000000815260040161233f9061467c565b60405180910390fd5b60006123538361099e565b90508073ffffffffffffffffffffffffffffffffffffffff168473ffffffffffffffffffffffffffffffffffffffff1614806123c257508373ffffffffffffffffffffffffffffffffffffffff166123aa84610769565b73ffffffffffffffffffffffffffffffffffffffff16145b806123d357506123d281856117d0565b5b91505092915050565b8273ffffffffffffffffffffffffffffffffffffffff166123fc8261099e565b73ffffffffffffffffffffffffffffffffffffffff1614612452576040517f08c379a00000000000000000000000000000000000000000000000000000000081526004016124499061475c565b60405180910390fd5b600073ffffffffffffffffffffffffffffffffffffffff168273ffffffffffffffffffffffffffffffffffffffff1614156124c2576040517f08c379a00000000000000000000000000000000000000000000000000000000081526004016124b99061463c565b60405180910390fd5b6124cd838383612d9e565b6124d8600082612245565b6001600360008573ffffffffffffffffffffffffffffffffffffffff1673ffffffffffffffffffffffffffffffffffffffff16815260200190815260200160002060008282546125289190614a7e565b925050819055506001600360008473ffffffffffffffffffffffffffffffffffffffff1673ffffffffffffffffffffffffffffffffffffffff168152602001908152602001600020600082825461257f919061499d565b92505081905550816002600083815260200190815260200160002060006101000a81548173ffffffffffffffffffffffffffffffffffffffff021916908373ffffffffffffffffffffffffffffffffffffffff160217905550808273ffffffffffffffffffffffffffffffffffffffff168473ffffffffffffffffffffffffffffffffffffffff167fddf252ad1be2c89b69c2b068fc378daa952ba7f163c4a11628f55a4df523b3ef60405160405180910390a4505050565b8173ffffffffffffffffffffffffffffffffffffffff168373ffffffffffffffffffffffffffffffffffffffff1614156126a7576040517f08c379a000000000000000000000000000000000000000000000000000000000815260040161269e9061465c565b60405180910390fd5b80600560008573ffffffffffffffffffffffffffffffffffffffff1673ffffffffffffffffffffffffffffffffffffffff16815260200190815260200160002060008473ffffffffffffffffffffffffffffffffffffffff1673ffffffffffffffffffffffffffffffffffffffff16815260200190815260200160002060006101000a81548160ff0219169083151502179055508173ffffffffffffffffffffffffffffffffffffffff168373ffffffffffffffffffffffffffffffffffffffff167f17307eab39ab6107e8899845ad3d59bd9653f200f220920489ca2b5937696c31836040516127989190614415565b60405180910390a3505050565b6127b08484846123dc565b6127bc84848484612da3565b6127fb576040517f08c379a00000000000000000000000000000000000000000000000000000000081526004016127f2906145fc565b60405180910390fd5b50505050565b60606000821415612849576040518060400160405280600181526020017f300000000000000000000000000000000000000000000000000000000000000081525090506129a9565b600082905060005b6000821461287b57808061286490614b9a565b915050600a8261287491906149f3565b9150612851565b60008167ffffffffffffffff8111156128bd577f4e487b7100000000000000000000000000000000000000000000000000000000600052604160045260246000fd5b6040519080825280601f01601f1916602001820160405280156128ef5781602001600182028036833780820191505090505b5090505b600085146129a2576001826129089190614a7e565b9150600a856129179190614be3565b6030612923919061499d565b60f81b81838151811061295f577f4e487b7100000000000000000000000000000000000000000000000000000000600052603260045260246000fd5b60200101907effffffffffffffffffffffffffffffffffffffffffffffffffffffffffffff1916908160001a905350600a8561299b91906149f3565b94506128f3565b8093505050505b919050565b606060008251905060008114156129d75760405180602001604052806000815250915050612b67565b600060036002836129e8919061499d565b6129f291906149f3565b60046129fe9190614a24565b90506000602082612a0f919061499d565b67ffffffffffffffff811115612a4e577f4e487b7100000000000000000000000000000000000000000000000000000000600052604160045260246000fd5b6040519080825280601f01601f191660200182016040528015612a805781602001600182028036833780820191505090505b5090506000604051806060016040528060408152602001614d75604091399050600181016020830160005b86811015612b245760038101905062ffffff818a015116603f8160121c168401518060081b905060ff603f83600c1c1686015116810190508060081b905060ff603f8360061c1686015116810190508060081b905060ff603f831686015116810190508060e01b90508084526004840193505050612aab565b506003860660018114612b3e5760028114612b4e57612b59565b613d3d60f01b6002830352612b59565b603d60f81b60018303525b508484525050819450505050505b919050565b612c0884848484604051602401612b8694939291906144ac565b6040516020818303038152906040527fd5cf17d0000000000000000000000000000000000000000000000000000000007bffffffffffffffffffffffffffffffffffffffffffffffffffffffff19166020820180517bffffffffffffffffffffffffffffffffffffffffffffffffffffffff8381831617835250505050612d75565b50505050565b612ca68282604051602401612c2492919061456e565b6040516020818303038152906040527f9710a9d0000000000000000000000000000000000000000000000000000000007bffffffffffffffffffffffffffffffffffffffffffffffffffffffff19166020820180517bffffffffffffffffffffffffffffffffffffffffffffffffffffffff8381831617835250505050612d75565b5050565b600081600001549050919050565b612cd2828260405180602001604052806000815250612f3a565b5050565b612d70838383604051602401612cee9392919061459e565b6040516020818303038152906040527f969cdd03000000000000000000000000000000000000000000000000000000007bffffffffffffffffffffffffffffffffffffffffffffffffffffffff19166020820180517bffffffffffffffffffffffffffffffffffffffffffffffffffffffff8381831617835250505050612d75565b505050565b60008151905060006a636f6e736f6c652e6c6f679050602083016000808483855afa5050505050565b505050565b6000612dc48473ffffffffffffffffffffffffffffffffffffffff16612f95565b15612f2d578373ffffffffffffffffffffffffffffffffffffffff1663150b7a02612ded61223d565b8786866040518563ffffffff1660e01b8152600401612e0f94939291906142fb565b602060405180830381600087803b158015612e2957600080fd5b505af1925050508015612e5a57506040513d601f19601f82011682018060405250810190612e579190613534565b60015b612edd573d8060008114612e8a576040519150601f19603f3d011682016040523d82523d6000602084013e612e8f565b606091505b50600081511415612ed5576040517f08c379a0000000000000000000000000000000000000000000000000000000008152600401612ecc906145fc565b60405180910390fd5b805181602001fd5b63150b7a0260e01b7bffffffffffffffffffffffffffffffffffffffffffffffffffffffff1916817bffffffffffffffffffffffffffffffffffffffffffffffffffffffff191614915050612f32565b600190505b949350505050565b612f448383612fa8565b612f516000848484612da3565b612f90576040517f08c379a0000000000000000000000000000000000000000000000000000000008152600401612f87906145fc565b60405180910390fd5b505050565b600080823b905060008111915050919050565b600073ffffffffffffffffffffffffffffffffffffffff168273ffffffffffffffffffffffffffffffffffffffff161415613018576040517f08c379a000000000000000000000000000000000000000000000000000000000815260040161300f9061471c565b60405180910390fd5b613021816121d1565b15613061576040517f08c379a00000000000000000000000000000000000000000000000000000000081526004016130589061461c565b60405180910390fd5b61306d60008383612d9e565b6001600360008473ffffffffffffffffffffffffffffffffffffffff1673ffffffffffffffffffffffffffffffffffffffff16815260200190815260200160002060008282546130bd919061499d565b92505081905550816002600083815260200190815260200160002060006101000a81548173ffffffffffffffffffffffffffffffffffffffff021916908373ffffffffffffffffffffffffffffffffffffffff160217905550808273ffffffffffffffffffffffffffffffffffffffff16600073ffffffffffffffffffffffffffffffffffffffff167fddf252ad1be2c89b69c2b068fc378daa952ba7f163c4a11628f55a4df523b3ef60405160405180910390a45050565b6040518060e00160405280600081526020016060815260200160608152602001600081526020016000815260200160008152602001600081525090565b6040518060600160405280600073ffffffffffffffffffffffffffffffffffffffff1681526020016131e3613176565b8152602001600081525090565b8280546131fc90614b68565b90600052602060002090601f01602090048101928261321e5760008555613265565b82601f1061323757805160ff1916838001178555613265565b82800160010185558215613265579182015b82811115613264578251825591602001919060010190613249565b5b5090506132729190613276565b5090565b5b8082111561328f576000816000905550600101613277565b5090565b60006132a66132a1846148a7565b614876565b9050828152602081018484840111156132be57600080fd5b6132c9848285614b26565b509392505050565b6000813590506132e081614ce1565b92915050565b6000813590506132f581614cf8565b92915050565b60008135905061330a81614d0f565b92915050565b60008151905061331f81614d0f565b92915050565b600082601f83011261333657600080fd5b8135613346848260208601613293565b91505092915050565b60008135905061335e81614d26565b92915050565b60006020828403121561337657600080fd5b6000613384848285016132d1565b91505092915050565b600080604083850312156133a057600080fd5b60006133ae858286016132d1565b92505060206133bf858286016132d1565b9150509250929050565b6000806000606084860312156133de57600080fd5b60006133ec868287016132d1565b93505060206133fd868287016132d1565b925050604061340e8682870161334f565b9150509250925092565b6000806000806080858703121561342e57600080fd5b600061343c878288016132d1565b945050602061344d878288016132d1565b935050604061345e8782880161334f565b925050606085013567ffffffffffffffff81111561347b57600080fd5b61348787828801613325565b91505092959194509250565b600080604083850312156134a657600080fd5b60006134b4858286016132d1565b92505060206134c5858286016132e6565b9150509250929050565b600080604083850312156134e257600080fd5b60006134f0858286016132d1565b92505060206135018582860161334f565b9150509250929050565b60006020828403121561351d57600080fd5b600061352b848285016132fb565b91505092915050565b60006020828403121561354657600080fd5b600061355484828501613310565b91505092915050565b60006020828403121561356f57600080fd5b600061357d8482850161334f565b91505092915050565b6000613592838361404d565b905092915050565b60006135a68383614193565b905092915050565b6135b781614ab2565b82525050565b6135c681614ab2565b82525050565b60006135d7826148f7565b6135e1818561493d565b9350836020820285016135f3856148d7565b8060005b8581101561362f57848403895281516136108582613586565b945061361b83614923565b925060208a019950506001810190506135f7565b50829750879550505050505092915050565b600061364c82614902565b613656818561494e565b935083602082028501613668856148e7565b8060005b858110156136a45784840389528151613685858261359a565b945061369083614930565b925060208a0199505060018101905061366c565b50829750879550505050505092915050565b6136bf81614ac4565b82525050565b60006136d08261490d565b6136da818561495f565b93506136ea818560208601614b35565b6136f381614cd0565b840191505092915050565b600061370982614918565b6137138185614970565b9350613723818560208601614b35565b61372c81614cd0565b840191505092915050565b600061374282614918565b61374c8185614981565b935061375c818560208601614b35565b61376581614cd0565b840191505092915050565b600061377b82614918565b6137858185614992565b9350613795818560208601614b35565b80840191505092915050565b60006137ae600b83614992565b91507f202d2d204e465420233a200000000000000000000000000000000000000000006000830152600b82019050919050565b60006137ee602d83614981565b91507f4572726f723a20626f7373206d757374206861766520485020746f206174746160008301527f636b206368617261637465722e000000000000000000000000000000000000006020830152604082019050919050565b6000613854603283614981565b91507f4552433732313a207472616e7366657220746f206e6f6e20455243373231526560008301527f63656976657220696d706c656d656e74657200000000000000000000000000006020830152604082019050919050565b60006138ba602b83614992565b91507f7d2c207b202274726169745f74797065223a202243726974204368616e63652260008301527f2c202276616c7565223a200000000000000000000000000000000000000000006020830152602b82019050919050565b6000613920601c83614981565b91507f4552433732313a20746f6b656e20616c7265616479206d696e746564000000006000830152602082019050919050565b6000613960600e83614992565b91507f2c20226d61785f76616c7565223a0000000000000000000000000000000000006000830152600e82019050919050565b60006139a0602483614981565b91507f4552433732313a207472616e7366657220746f20746865207a65726f2061646460008301527f72657373000000000000000000000000000000000000000000000000000000006020830152604082019050919050565b6000613a06601983614981565b91507f4552433732313a20617070726f766520746f2063616c6c6572000000000000006000830152602082019050919050565b6000613a46602c83614981565b91507f4552433732313a206f70657261746f7220717565727920666f72206e6f6e657860008301527f697374656e7420746f6b656e00000000000000000000000000000000000000006020830152604082019050919050565b6000613aac603883614981565b91507f4552433732313a20617070726f76652063616c6c6572206973206e6f74206f7760008301527f6e6572206e6f7220617070726f76656420666f7220616c6c00000000000000006020830152604082019050919050565b6000613b12602a83614981565b91507f4552433732313a2062616c616e636520717565727920666f7220746865207a6560008301527f726f2061646472657373000000000000000000000000000000000000000000006020830152604082019050919050565b6000613b78602983614981565b91507f4552433732313a206f776e657220717565727920666f72206e6f6e657869737460008301527f656e7420746f6b656e00000000000000000000000000000000000000000000006020830152604082019050919050565b6000613bde602d83614981565b91507f4572726f723a20636861726163746572206d757374206861766520485020746f60008301527f2061747461636b20626f73732e000000000000000000000000000000000000006020830152604082019050919050565b6000613c44600483614992565b91507f7d205d7d000000000000000000000000000000000000000000000000000000006000830152600482019050919050565b6000613c84602083614981565b91507f4552433732313a206d696e7420746f20746865207a65726f20616464726573736000830152602082019050919050565b6000613cc4602c83614981565b91507f4552433732313a20617070726f76656420717565727920666f72206e6f6e657860008301527f697374656e7420746f6b656e00000000000000000000000000000000000000006020830152604082019050919050565b6000613d2a602983614981565b91507f4552433732313a207472616e73666572206f6620746f6b656e2074686174206960008301527f73206e6f74206f776e00000000000000000000000000000000000000000000006020830152604082019050919050565b6000613d90600a83614992565b91507f7b226e616d65223a2022000000000000000000000000000000000000000000006000830152600a82019050919050565b6000613dd0602183614981565b91507f4552433732313a20617070726f76616c20746f2063757272656e74206f776e6560008301527f72000000000000000000000000000000000000000000000000000000000000006020830152604082019050919050565b6000613e36601d83614992565b91507f646174613a6170706c69636174696f6e2f6a736f6e3b6261736536342c0000006000830152601d82019050919050565b6000613e76606983614992565b91507f222c20226465736372697074696f6e223a20225468697320697320616e204e4660008301527f542074686174206c6574732070656f706c6520706c617920696e20746865206760208301527f616d65204d657461766572736520536c6179657221222c2022696d616765223a60408301527f2022697066733a2f2f00000000000000000000000000000000000000000000006060830152606982019050919050565b6000613f28603183614981565b91507f4552433732313a207472616e736665722063616c6c6572206973206e6f74206f60008301527f776e6572206e6f7220617070726f7665640000000000000000000000000000006020830152604082019050919050565b6000613f8e603d83614992565b91507f222c202261747472696275746573223a205b207b202274726169745f7479706560008301527f223a20224865616c746820506f696e7473222c202276616c7565223a200000006020830152603d82019050919050565b6000613ff4602d83614992565b91507f7d2c207b202274726169745f74797065223a202241747461636b2044616d616760008301527f65222c202276616c7565223a20000000000000000000000000000000000000006020830152602d82019050919050565b600060e08301600083015161406560008601826141e3565b506020830151848203602086015261407d82826136fe565b9150506040830151848203604086015261409782826136fe565b91505060608301516140ac60608601826141e3565b5060808301516140bf60808601826141e3565b5060a08301516140d260a08601826141e3565b5060c08301516140e560c08601826141e3565b508091505092915050565b600060e08301600083015161410860008601826141e3565b506020830151848203602086015261412082826136fe565b9150506040830151848203604086015261413a82826136fe565b915050606083015161414f60608601826141e3565b50608083015161416260808601826141e3565b5060a083015161417560a08601826141e3565b5060c083015161418860c08601826141e3565b508091505092915050565b60006060830160008301516141ab60008601826135ae565b50602083015184820360208601526141c3828261404d565b91505060408301516141d860408601826141e3565b508091505092915050565b6141ec81614b1c565b82525050565b6141fb81614b1c565b82525050565b600061420c82613d83565b9150614218828a613770565b9150614223826137a1565b915061422f8289613770565b915061423a82613e69565b91506142468288613770565b915061425182613f81565b915061425d8287613770565b915061426882613953565b91506142748286613770565b915061427f82613fe7565b915061428b8285613770565b9150614296826138ad565b91506142a28284613770565b91506142ad82613c37565b915081905098975050505050505050565b60006142c982613e29565b91506142d58284613770565b915081905092915050565b60006020820190506142f560008301846135bd565b92915050565b600060808201905061431060008301876135bd565b61431d60208301866135bd565b61432a60408301856141f2565b818103606083015261433c81846136c5565b905095945050505050565b600060608201905061435c60008301866135bd565b61436960208301856141f2565b61437660408301846141f2565b949350505050565b600060a08201905061439360008301886135bd565b6143a060208301876141f2565b6143ad60408301866141f2565b6143ba60608301856136b6565b6143c760808301846136b6565b9695505050505050565b600060208201905081810360008301526143eb81846135cc565b905092915050565b6000602082019050818103600083015261440d8184613641565b905092915050565b600060208201905061442a60008301846136b6565b92915050565b6000602082019050818103600083015261444a8184613737565b905092915050565b6000608082019050818103600083015261446c8187613737565b905081810360208301526144808186613737565b905061448f60408301856141f2565b81810360608301526144a18184613737565b905095945050505050565b600060808201905081810360008301526144c68187613737565b905081810360208301526144da8186613737565b90506144e960408301856141f2565b6144f660608301846141f2565b95945050505050565b600060c08201905081810360008301526145198189613737565b9050818103602083015261452d8188613737565b905061453c60408301876141f2565b61454960608301866141f2565b61455660808301856141f2565b61456360a08301846141f2565b979650505050505050565b600060408201905081810360008301526145888185613737565b905061459760208301846141f2565b9392505050565b600060608201905081810360008301526145b88186613737565b90506145c760208301856141f2565b6145d460408301846141f2565b949350505050565b600060208201905081810360008301526145f5816137e1565b9050919050565b6000602082019050818103600083015261461581613847565b9050919050565b6000602082019050818103600083015261463581613913565b9050919050565b6000602082019050818103600083015261465581613993565b9050919050565b60006020820190508181036000830152614675816139f9565b9050919050565b6000602082019050818103600083015261469581613a39565b9050919050565b600060208201905081810360008301526146b581613a9f565b9050919050565b600060208201905081810360008301526146d581613b05565b9050919050565b600060208201905081810360008301526146f581613b6b565b9050919050565b6000602082019050818103600083015261471581613bd1565b9050919050565b6000602082019050818103600083015261473581613c77565b9050919050565b6000602082019050818103600083015261475581613cb7565b9050919050565b6000602082019050818103600083015261477581613d1d565b9050919050565b6000602082019050818103600083015261479581613dc3565b9050919050565b600060208201905081810360008301526147b581613f1b565b9050919050565b600060208201905081810360008301526147d681846140f0565b905092915050565b60006020820190506147f360008301846141f2565b92915050565b600060e08201905061480e600083018a6141f2565b81810360208301526148208189613737565b905081810360408301526148348188613737565b905061484360608301876141f2565b61485060808301866141f2565b61485d60a08301856141f2565b61486a60c08301846141f2565b98975050505050505050565b6000604051905081810181811067ffffffffffffffff8211171561489d5761489c614ca1565b5b8060405250919050565b600067ffffffffffffffff8211156148c2576148c1614ca1565b5b601f19601f8301169050602081019050919050565b6000819050602082019050919050565b6000819050602082019050919050565b600081519050919050565b600081519050919050565b600081519050919050565b600081519050919050565b6000602082019050919050565b6000602082019050919050565b600082825260208201905092915050565b600082825260208201905092915050565b600082825260208201905092915050565b600082825260208201905092915050565b600082825260208201905092915050565b600081905092915050565b60006149a882614b1c565b91506149b383614b1c565b9250827fffffffffffffffffffffffffffffffffffffffffffffffffffffffffffffffff038211156149e8576149e7614c14565b5b828201905092915050565b60006149fe82614b1c565b9150614a0983614b1c565b925082614a1957614a18614c43565b5b828204905092915050565b6000614a2f82614b1c565b9150614a3a83614b1c565b9250817fffffffffffffffffffffffffffffffffffffffffffffffffffffffffffffffff0483118215151615614a7357614a72614c14565b5b828202905092915050565b6000614a8982614b1c565b9150614a9483614b1c565b925082821015614aa757614aa6614c14565b5b828203905092915050565b6000614abd82614afc565b9050919050565b60008115159050919050565b60007fffffffff0000000000000000000000000000000000000000000000000000000082169050919050565b600073ffffffffffffffffffffffffffffffffffffffff82169050919050565b6000819050919050565b82818337600083830152505050565b60005b83811015614b53578082015181840152602081019050614b38565b83811115614b62576000848401525b50505050565b60006002820490506001821680614b8057607f821691505b60208210811415614b9457614b93614c72565b5b50919050565b6000614ba582614b1c565b91507fffffffffffffffffffffffffffffffffffffffffffffffffffffffffffffffff821415614bd857614bd7614c14565b5b600182019050919050565b6000614bee82614b1c565b9150614bf983614b1c565b925082614c0957614c08614c43565b5b828206905092915050565b7f4e487b7100000000000000000000000000000000000000000000000000000000600052601160045260246000fd5b7f4e487b7100000000000000000000000000000000000000000000000000000000600052601260045260246000fd5b7f4e487b7100000000000000000000000000000000000000000000000000000000600052602260045260246000fd5b7f4e487b7100000000000000000000000000000000000000000000000000000000600052604160045260246000fd5b6000601f19601f8301169050919050565b614cea81614ab2565b8114614cf557600080fd5b50565b614d0181614ac4565b8114614d0c57600080fd5b50565b614d1881614ad0565b8114614d2357600080fd5b50565b614d2f81614b1c565b8114614d3a57600080fd5b5056fe426f73732061747461636b656420706c617965722773206368617261637465722e204e6577206368617261637465722068703a2025730a4142434445464748494a4b4c4d4e4f505152535455565758595a6162636465666768696a6b6c6d6e6f707172737475767778797a303132333435363738392b2f4d696e746564204e465420772f20746f6b656e496420257320616e6420636861726163746572496e646578202573506c617965722773206368617261637465722061747461636b65642074686520626f73732e204e657720626f73732068703a2025730a506c6179657220772f206368617261637465722025732061626f757420746f2061747461636b2e2048617320257320485020616e64202573204144a26469706673582212201674576508d65f0c85c9f2f9d82e23cc51f12a392c4dbeb1e76c37f05ec689e764736f6c63430008000033446f6e6520696e697469616c697a696e6720257320772f2048502025732c20696d67202573446f6e6520696e697469616c697a696e6720626f737320257320772f2048502025732c20696d67202573",
  "linkReferences": {},
  "deployedLinkReferences": {}
}